{
  "contractName": "HelloWorld",
  "abi": [
    {
      "constant": true,
      "inputs": [],
      "name": "hello",
      "outputs": [
        {
          "internalType": "string",
          "name": "",
          "type": "string"
        }
      ],
      "payable": false,
      "stateMutability": "pure",
      "type": "function"
    }
  ],
  "bytecode": "0x608060405234801561001057600080fd5b5061011d806100206000396000f3fe6080604052348015600f57600080fd5b506004361060285760003560e01c806319ff1d2114602d575b600080fd5b603360ab565b6040518080602001828103825283818151815260200191508051906020019080838360005b8381101560715780820151818401526020810190506058565b50505050905090810190601f168015609d5780820380516001836020036101000a031916815260200191505b509250505060405180910390f35b60606040518060400160405280600b81526020017f48656c6c6f20776f726c6400000000000000000000000000000000000000000081525090509056fea265627a7a72315820bc9b46bfd898a53ee52275eac2c112655edb4c092162fac99fa429676448366e64736f6c63430005100032",
  "source": "// Especificar la versio'n del compilador\npragma solidity ^0.5.0;\n\ncontract HelloWorld {\n    function hello() public pure returns (string memory) {\n        // memory para variables temporales\n        // pure porque no modificamos el blockchain\n        return \"Hello world\";\n    }\n}\n",
  "sourcePath": "/Users/jvelazquez/GitHub/dapps_fcc/smart-contract-helloworld/contracts/HelloWorld.sol",
  "compiler": {
    "name": "solc",
    "version": "0.5.16+commit.9c3226ce.Emscripten.clang"
  },
  "schemaVersion": "3.4.3",
  "updatedAt": "2021-09-22T18:20:04.652Z",
  "networkType": "ethereum",
  "devdoc": {
    "methods": {}
  },
  "userdoc": {
    "methods": {}
  }
}